:100000000C9434000C943E000C943E000C943E0082
:100010000C943E000C943E000C943E000C943E0068
:100020000C943E000C943E000C943E000C943E0058
:100030000C943E000C943E000C943E000C943E0048
:100040000C943E000C943E000C943E000C943E0038
:100050000C943E000C943E000C943E000C943E0028
:100060000C943E000C943E0011241FBECFEFD8E04C
:10007000DEBFCDBF0E9440000C9467000C940000CE
:1000800081E084B987E08AB941E020E931E062E0AB
:1000900054E04BB988EC90E0F9013197F1F7019702
:1000A000D9F76BB988EC90E0F9013197F1F7019736
:1000B000D9F75BB988EC90E0F9013197F1F7019736
:1000C000D9F7199902C045B9E4CF15B8E2CFF89431
:0200D000FFCF60
:00000001FF
